:020000040800F2
:100000000004002047010008750300086D03000884
:1000100071030008ED010008F5070008000000006A
:10002000000000000000000000000000650500085E
:10003000F1010008000000007703000841060008F5
:1000400067010008670100086701000867010008F0
:1000500067010008670100086701000867010008E0
:1000600067010008670100086701000867010008D0
:1000700067010008670100086701000867010008C0
:1000800067010008670100086701000867010008B0
:1000900067010008670100086701000867010008A0
:1000A0006701000867010008670100086701000890
:1000B0006701000867010008670100086701000880
:1000C0006701000867010008670100086701000870
:1000D00067010008E5060008E70600086701000858
:1000E0006701000867010008670100086701000850
:1000F0006701000867010008670100086701000840
:10010000670100086701000867010008670100082F
:10011000670100086701000867010008670100081F
:10012000670100086701000867010008670100080F
:10013000DFF80CD000F048F800480047650A0008D6
:1001400020800020704708488047084981F30888CC
:1001500007480047FEE7FEE7FEE7FEE7FEE7FEE7AB
:10016000FEE7FEE7FEE7FEE74501000820800020ED
:1001700031010008D2B201E000F8012B491EFBD288
:1001800070470022F6E710B50446084611460246BD
:100190002046FFF7EFFF204610BD30B50B46014665
:1001A00000202022012409E021FA02F59D4205D316
:1001B00003FA02F5491B04FA02F52844151EA2F1C0
:1001C0000102F1DC30BD0000064C074D06E0E0689E
:1001D00040F0010394E8070098471034AC42F6D38E
:1001E000FFF7AAFF7C0B00089C0B000800BFFEE78E
:1001F000704700E0401E0028FCD1704708B501217F
:100200007C2000F035F90121080500F021F940209B
:10021000ADF8000010208DF8030003208DF80200D7
:1002200069460D4800F01CF84FF48050ADF800000E
:1002300003208DF8020018208DF803006946064857
:1002400000F00EF80420ADF800008DF803006946B8
:10025000024800F005F808BD0010014000140140FC
:10026000F0B500220023002400250026002791F885
:1002700003C00CF00F0291F803C01CF0100F03D064
:1002800091F802C04CEA0202B1F800C01CF0FF0F66
:1002900031D0066800242BE04FF0010C0CFA04F575
:1002A000B1F800C00CEA0503AB4220D1A5004FF025
:1002B0000F0C0CFA05F7BE4302FA05FC4CEA0606E1
:1002C00091F803C0BCF1280F06D14FF0010C0CFAD5
:1002D00004FCC0F814C00AE091F803C0BCF1480F58
:1002E00005D14FF0010C0CFA04FCC0F810C0641CDE
:1002F000082CD1D30660B1F800C0BCF1FF0F34DD8B
:10030000466800242EE004F1080C4FF0010E0EFAAE
:100310000CF5B1F800C00CEA0503AB4221D1A500F1
:100320004FF00F0C0CFA05F7BE4302FA05FC4CEA3D
:10033000060691F803C0BCF1280F05D104F1080CA2
:100340000EFA0CFEC0F814E091F803C0BCF1480F9F
:1003500007D104F1080C4FF0010E0EFA0CFEC0F8A4
:1003600010E0641C082CCED34660F0BD00BFFEE751
:1003700000BFFEE77047704710B5044600202060BC
:1003800060602061606115E000206268E16841F80A
:1003900022006268E16851F8220000F03BFB6068CF
:1003A000401CA168B0FBF1F201FB12006060206903
:1003B000401E206120690028E6D110BD70B50446BA
:1003C0000D461646E560A6602046FFF7D5FF70BDD6
:1003D00010B5024610699368984210D21368D0682D
:1003E00040F823101068401C9368B0FBF3F403FB43
:1003F000140010601069401C1061012010BD50698C
:10040000401C02D05069401C50614FF0FF30F5E7AE
:1004100010B50446204600F0FDFA10BD10B50246A6
:10042000106988B15368D06850F82300086050689C
:10043000401C9368B0FBF3F403FB14005060106998
:10044000401E1061012010BD00200860FBE7000085
:1004500029B1064AD2690243044BDA6104E0034A37
:10046000D2698243014BDA617047000000100240FC
:1004700029B1064A92690243044B9A6104E0034A97
:1004800092698243014B9A6170470000001002405C
:1004900030B500210022002300242E4D6D6805F0A8
:1004A0000C0121B1042905D0082923D105E02A4DEA
:1004B000056022E0284D05601FE0264D6D6805F4BB
:1004C0007012022505EB9242224D6D6805F48033CF
:1004D0001BB9224D554305600BE01E4D6D6815F4A8
:1004E000003F03D01D4D5543056002E01A4D5543B2
:1004F000056002E0184D056000BF00BF154D6D6836
:1005000005F0F0010909164D6C5C0568E540456091
:10051000104D6D6805F4E061090A114D6C5C456889
:10052000E54085600B4D6D6805F46051C90A0C4DBE
:100530006C5C4568E540C560064D6D6805F440415A
:10054000890B074D10356C5CC568B5FBF4F505618A
:1005500030BD00000010024000127A0000093D008A
:1005600000000020704710B500F002F810BD000038
:1005700000200021304A126842F480322E4B1A606B
:1005800000BF2D4A126802F40031401C11B9B0F5C9
:10059000A06FF6D1284A126812F4003F01D0012161
:1005A00000E00021012943D1244A126842F01002E0
:1005B000224B1A601A46126822F003021A601A4689
:1005C000126842F002021A601B4A52681A4B5A60C3
:1005D0001A4652685A601A46526842F480625A605B
:1005E0001A46526822F47C125A601A46526842F443
:1005F000E8125A601A46126842F080721A6000BF10
:100600000D4A126812F0007FFAD00B4A526822F0AD
:100610000302094B5A601A46526842F002025A60BD
:1006200000BF054A526802F00C02082AF9D101E025
:1006300000BFFEE7704700000010024000200240AB
:100640007047000010B51048006840F001000E49E6
:100650000860084640680D4908400B494860084654
:1006600000680B490840084908600846006820F403
:10067000802008600846406820F4FE0048600020A2
:100680008860FFF770FF10BD001002400000FFF807
:10069000FFFFF6FE1FB54FF4E13000900020ADF8EB
:1006A0000400ADF80600ADF80800ADF80C000C2011
:1006B000ADF80A0069460A4800F04AF8012240F203
:1006C0002551074800F025F8012240F2277104481F
:1006D00000F01FF80121024800F006F81FBD0000DD
:1006E000005000407047704721B1828942F40052A7
:1006F000828104E082894DF6FF731A40828170473F
:100700000246002013880B4201D0012000E00020A7
:100710007047F0B500240025002600230346C1F3EE
:10072000421401F01F05012707FA05F6012C01D13B
:100730000C3304E0022C01D1103300E014331AB161
:100740001F6837431F6002E01F68B7431F60F0BD9A
:100750002DE9F04786B004460D460026002700BF6D
:1007600000BFB246A246268A4CF6FF700640E888D3
:1007700006432682A6894EF6F3100640A8882989EA
:100780000843698908430643A681A68A4FF6FF40BD
:100790000640A8890643A68201A8FFF779FE5446C1
:1007A0001148824501D1049F00E0039F07EBC70079
:1007B00000EB071029688900B0FBF1F86420B8FB52
:1007C000F0F006013009642101FB1089322101EBB0
:1007D00009106421B0FBF1F000F00F000643268100
:1007E00006B0BDE8F087000000380140C1F3080200
:1007F0008280704700BFFEE70FB410B503A9044B19
:10080000044A029800F018F810BC5DF814FB0000D0
:10081000F10900081400002002E008C8121F08C1F6
:10082000002AFAD170477047002001E001C1121F71
:10083000002AFBD1704700002DE9FF4F8BB0054621
:100840009A460F460026C3E0252872D100246D1C6D
:10085000664AA14601212B78203B01FA03F01042A1
:1008600002D004436D1CF6E728782E2818D115F81D
:10087000010F44F004042A280BD157F8049B6D1C87
:100880000EE009EB890002EB400001EB00096D1C52
:1008900001E06FF02F022978A1F130000928F0D98A
:1008A0002878692806D00DDC002879D0632811D07B
:1008B0006428CAD101CF4FF00A0B00283ADA40422F
:1008C0002D213AE073280FD07528BED101CF4FF00B
:1008D0000A0B3AE001CF8DF8280000208DF829009E
:1008E0000DF12808012003E057F8048B4FF0FF308A
:1008F00061074FF000040AD500E0641C4C450EDA95
:100900008442FADB18F804100029F6D107E000E071
:10091000641C8442FCDB18F804100029F8D126443A
:1009200004E018F8010B52460D999047641EF8D266
:100930004DE055E0210504D52B218DF8081001214B
:1009400004E0E10701D02021F7E700210DF12C0898
:10095000019107E05946FFF720FCA8F10102303170
:10096000904611700028F5D103A8A0EB080000F113
:10097000200B600701D44FF001090020D94501DDAB
:10098000A9EB0B008146002406E002A8005D524658
:100990000D999047761C641C01988442F5DB05E0B4
:1009A0001AE0302052460D999047761CB9F10000AC
:1009B000A9F10109F5DC05E018F8010B52460D9983
:1009C0009047761CBBF10000ABF1010BF4DC6D1C11
:1009D000287800287FF438AF30460FB0BDE8F08F9C
:1009E00052460D999047761CF1E700000928010056
:1009F00070B504460D4600BF40210548FFF780FE54
:100A00000028F9D0E1B20248FFF7F0FE204670BDA1
:100A10000050004010B5002821D0114B001F0022CB
:100A2000196803E0814203D80A4649680029F9D1D0
:100A300052B11368841A9C4204D1006818441060B3
:100A4000104602E0506000E0186039B102680B1AED
:100A5000934203D10B681A4402604968416010BD9B
:100A60001800002070B5BAB0C82108A8FFF789FBAC
:100A7000002500240026FFF7E5FDFFF7BFFBFFF789
:100A800009FE322208A902A8FFF798FC2CE00820F2
:100A900000F03EF8050005D02E602E71294602A810
:100AA000FFF796FC082000F033F8050005D02E6013
:100AB0002E71294602A8FFF78BFC01A902A8FFF7B7
:100AC000ADFC48B1019C227908A02168FFF794FE93
:100AD0002046FFF79DFC03E007A10AA0FFF78CFE6C
:100AE0000A48FFF786FB761CD1E70000613A2564CF
:100AF0002C623A25640D0A00B3F6B6D3B4EDCEF3FA
:100B00000000000025730D0A00000000FFFF0F0029
:100B1000F0B50026154F0B3020F00701144A0FE006
:100B200003688B420BD38B4205D95D1A4468431886
:100B3000C3E9005400E04368136002C004E0021DF2
:100B400010680028ECD1304600280DD1386850B923
:100B5000074A08481060084A121A22F0070244C0E7
:100B600001203860DAE70020F0BD00001C00002002
:100B70001800002024000020207E00209C0B00088C
:100B8000000000202000000018080008BC0B00082E
:100B9000200000200080000028080008000000005D
:100BA00001020304010203040607080902040608FF
:0C0BB00000000000000000000000000039
:0400000508000131BD
:00000001FF
